:020000041000EA
:10000000002000082B0100100D0000008D010010E1
:1000100000000000000000000000000000000000E0
:100020000000000000000000000000008901001036
:10003000000000000000000089010010890100108C
:100040008901001089010010890100108901001048
:100050008901001089010010890100108901001038
:100060008901001089010010890100108901001028
:100070008901001089010010890100108901001018
:100080008901001089010010890100108901001008
:1000900089010010890100108901001089010010F8
:1000A00089010010890100108901001089010010E8
:1000B00089010010890100108901001089010010D8
:1000C00010B5064C2378002B07D1054B002B02D02E
:1000D000044800E000BF0123237010BD6005000844
:1000E0000000000030100010044B10B5002B03D0AE
:1000F0000349044800E000BF10BDC04600000000F6
:1001000064050008301000100230800803D0013070
:100110000238FCD1C046C0467047EFF3108072B67B
:10012000704780F3108870477047FFF7FDFF72B685
:100130000F4C104DAC4209DA21686268A368043B99
:1001400002DBC858D050FAE70C34F3E70A490B4AEF
:100150000020521A02DD043A8850FCDC08480949A4
:100160000860BFF34F8F00F09DFD00F0BDFCFEE77F
:10017000341000104C1000106005000868070008DB
:100180000000000808ED00E0FEE7FEE700B50420EF
:100190007146084202D0EFF3098001E0EFF30880D6
:1001A000043000F027FBFEE7014B18607047C046A3
:1001B00064070008044B1B681A00AC3212881B6AE3
:1001C0005043C0187047C046640700081D4B984252
:1001D0000FD010D840282FD005D8002830D01028B4
:1001E00028D019481EE0802828D080235B00984240
:1001F000F7D1144816E0154B984214D008D8A02324
:100200001B0698421CD0124B9842EAD1A0200BE06A
:10021000104B98420AD0104B984209D00F4B98428D
:10022000DFD10F487047A420C003FBE70D48F9E772
:100230000D48F7E70D48F5E70D48F3E70D48F1E7FE
:100240000020EFE706005200FF005200010000F01E
:10025000090000A0040000F0050000F0030000F019
:100260000100520002005200030052000100500041
:10027000020050000500520010B50020FFF79AFF61
:100280000A4B1C682300B0331B68C0180368002B9E
:100290000ADB074B1868FFF799FF012263689A6031
:1002A0009A68002AFCD110BD0248FCE764070008E8
:1002B0007C050008020050000D4B10B518600028A6
:1002C00004D0FE235B42038000234380094B1B685C
:1002D0001A004C321278002A08D04D331B78002BBC
:1002E00004D002220449002000F0E0F810BDC0460E
:1002F0008C050008640700084D01000810B502488D
:10030000FFF7DAFF10BDC04620050008064B1B684A
:10031000B0331B68C3181B68002B03DA89B2416035
:10032000002070470148FCE76407000801008A00CC
:100330000368002B04DA89B2C26081600020704734
:100340000048FCE701008A00064B1B68B0331B68BD
:10035000C3181B68002B03DAC36800200B607047CA
:100360000148FCE76407000801008A00024B1A6894
:10037000002A00D11860704790050008F0B52C24C1
:100380006043154C1F0024681D0A2018FF242540D7
:100390002740124C1B0C26680760346A4560836056
:1003A000AC36368877433F1907612F0080376D01DF
:1003B0007F01E71964190A4D47611F043B43641923
:1003C000236000238361059BC2610162002B01D081
:1003D0001B888381F0BDC0469005000864070008B3
:1003E00008100000F0B5836885B002AD2B80154B76
:1003F00002681B68066A9B8E476A9B18AB7043684D
:100400000095826AC16A040003930369C068FFF71C
:10041000B5FF00213B000A0000913000FFF7AEFF5E
:10042000216B280000F09AF90022AB5E002B06DB5E
:100430001F2213401E3A9A401300034A136005B06E
:10044000F0BDC0466407000800E100E0F7B52C25C8
:10045000134C684326686943341825690193711861
:10046000002D19D08869002818D12E68002E15DAC1
:100470006768012426004B689E40B44613689EB20C
:1004800063461B041E431660EA608C61BC40019BFE
:10049000A4B24B62AC60FEBD0248FCE70248FAE73A
:1004A0009005000804028A0007028A002C234343B7
:1004B00006480068C018C369934204D9036A002043
:1004C0009200D15070470248FCE7C04690050008F2
:1004D0000A028A0073B5002642690400D5680196B5
:1004E0002B0CB34221D01B0413601368194B006915
:1004F0001B68B0331B68C3181B68B34215DA01A927
:10050000FFF722FFB0420CD10198E26903681E0C8C
:10051000DBB29A4205D9226A9B009B58002B00D07F
:10052000984731002069FFF7F1FEADB2002D09D0E8
:1005300063691D6000251B68636AAB4205D098475C
:100540006562A56163691B6873BDA36A002BF8D05F
:100550009847F6E7640700082C2310B54343034A85
:100560001068C018FFF7B6FF10BDC0469005000820
:10057000F8B5194B0F001B681A002E321278824210
:1005800027D9002925D01F250A68154021D1190037
:10059000AC310C88114E60431C6AD2080419290042
:1005A0007868346000F0B4FC29002000FFF7AEFE4C
:1005B0003A0029003068FFF7BBFE041E07D1010096
:1005C0003068FFF7A3FE03002000002B00D0044892
:1005D000F8BD0448FCE7C04664070008940500081D
:1005E00001018A0003018A0010B5002A0DD10029FB
:1005F00014D10B4B1A681300AC331B885843136A91
:10060000C018084B1860080010BD002906D0064B22
:10061000196019005A60FFF7ABFFF5E70348F3E7ED
:1006200064070008940500082405000803018A00F7
:10063000F7B5184F04003B680191DE6833688342C8
:1006400026D90025A94202D1FFF767FD05003868C9
:100650000368002B1ADA1F22012322409340640909
:100660007268A4001419226813420DD09A432260C4
:1006700000240021FFF74AFE019B002B02D1280035
:10068000FFF74FFD2000FEBD034CF2E7034CF3E7FC
:10069000034CF7E794050008020188000301880075
:1006A00004018A000A4B1B68DB681A6882420DD974
:1006B00059681F23420918401E3B8340920050583E
:1006C0001840431E9841034BC01870470248FCE78E
:1006D000940500080001880004018A00144B30B51D
:1006E0001A680724130028331B781F2B15D883089A
:1006F0001D00A5432C1E0FD103342040A040814093
:1007000012689B002032D3180A00FF2181401C6828
:10071000624011406140196030BD802320401B06BB
:10072000184380239B011268C91889008850F3E799
:1007300064070008064B9A680300064810339B00C4
:10074000824202D1985899507047034AD058FBE72B
:1007500000ED00E00000000800000010F8B5060001
:100760000D0000283AD00023C05E002828DBB178B5
:10077000FFF7B4FF0024FF22032794460023F05E16
:10078000716883B21F40FF006646BA40890131405C
:10079000D243B940002815DB114E83089B009B19FA
:1007A000C026B6009F593A40114399510D4B9A68A3
:1007B0000D4B9A4202D12900FFF7BCFF2000F8BD83
:1007C0000A4CD8E70F263340083B064E9B089B0097
:1007D0009B19DE6932401143D961E7E7034CEDE72D
:1007E00000E100E000ED00E000000008010056001C
:1007F000FEE7000002680A4B10B51A6042685A60B2
:1008000082689A60C268DA6002691A6142695A6154
:1008100082699A61C269DA61FFF7EAFF10BDC046DA
:1008200040050008B0235B055A782120002A01D03A
:100830005878C0B27047B0235B059A89002A02D06D
:10084000988980B2704780204000FBE77FB5274B36
:1008500086000D00F458042901D0012927D1002079
:100860000FE0A3682B420BD1E36829001A685B688C
:1008700002920193039302A8236898471C4B1C60C3
:100880006469002C0BD01B4B9842EAD1012DE8D1B2
:10089000174B18481A68184B9A5104B070BD012DB7
:1008A000FBD1144B9842F3D0134B9C51F5E702292E
:1008B00006D10F4B1B68181EEFD01C6903E01C000B
:1008C0006369002BFBD10020002CE6D0A3682B42EB
:1008D00009D1E36829001A685B68029201930393C7
:1008E00002A8236898472469EEE7C046D0050008AF
:1008F000CC050008FF004200B8050008F2220E4BAC
:10090000D2011B68DB689A580260F022D2019A5823
:1009100042600A4A9A588260094A9A58C260094A53
:100920009A580261084A9A584261084A9A58826164
:10093000074A9B58C36170476407000804780000A9
:10094000087800000C78000010780000147800008F
:1009500018780000F0220E4B41681B68D201DB685A
:10096000995081680B4A9950C1680B4A99500169A6
:100970000A4A995041690A4A99508169094A99502D
:10098000C169094A99500168E83299507047C046D8
:100990006407000804780000087800000C78000064
:1009A000107800001478000018780000F7B53F4D6B
:1009B00007006B68002B4AD1FFF7AFFB6B68019013
:1009C000002B56D13A4E33681A0041321278002A71
:1009D00007D09B68E0331B68DB0602D53548FFF77C
:1009E0008DFFFFF728FF80235B00984246D1380037
:1009F00000F0A2FA002433681A0041321278002A6B
:100A000017D0002815D09B68E0331B68DB0610D593
:100A1000FFF708FF274B212808D032681300AC33BA
:100A2000198807234B43126A9B18DB681800FFF7ED
:100A300091FF0198FFF775FB002C0ED16B68002B1E
:100A400003D008210120FFF701FF2000FEBD012196
:100A50000800FFF7FBFE041EAED06B68002B03D02E
:100A600002210120FFF7F2FE134B9C42EDD0134C04
:100A7000EBE704210120FFF7E9FEA3E7326813004A
:100A8000B0331B68126A9B181B68002B0BDB042316
:100A90000B4A11690B431361012F02D030BF0020B4
:100AA000A8E720BFFBE70020034CA4E7D00500081F
:100AB000640700089805000805004200FF00420096
:100AC00000ED00E0C0228020064952008B58C0058E
:100AD0009B009B0803438B50802388581B060343CD
:100AE0008B5070470000264010B562B6034800F0F6
:100AF00059F90020FFF75AFFFBE7C046002000101D
:100B000010B50020FFF728FD10BD7047F8B5E023B1
:100B1000524C9B00E2580F23D0211A4093008900C9
:100B20001B19585807210840032860D0042861D0B9
:100B3000414248414A49404208404A494018002A37
:100B400067D1B223B1220321DB00D200E558A358BC
:100B5000A6581B0F360F0B400E4204D0A258120F9E
:100B60000A40012A01D1EA0701D4032B11D1B02395
:100B70003D4ADB00E658A158E558C904C90C00F00D
:100B80003BF9B3039B0B5843E901C90F013100F056
:100B900033F9E0239B00E3589B069B0FD840334B6F
:100BA0001860334B1C691969240A090E013100F0E1
:100BB00023F9304BE1B21860013100F01DF92E4BE2
:100BC000040018602D4B2E4918602E4BC01800F001
:100BD00013F9FA212C4B890018702C4BE01800F007
:100BE0000BF92B4B18602B4BC0031860F8BD2A493A
:100BF0000868A4E7C0211F20890059580140112925
:100C000001D0132902D18020000298E7FA20C00108
:100C100095E7013A012ABCD80327204A9E58204A6A
:100C200099589D58090F2D0F39403D4204D09D58C9
:100C30002D0F3D40012D01D1F50701D40329A8D185
:100C40009E5899589D587F2333401F26090A3140EA
:100C5000584300F0D1F8290C314098E700002640B5
:100C600000DC0BFF00366E0184050000C8000008A0
:100C700000002140CC000008C0000008D40000089B
:100C800040420F003F420F00DC000008E703000075
:100C9000D8000008D0000008C40000083C0600008E
:100CA000FC05000010B52448FFF77EFAB022E021D1
:100CB0003020224CD200A35889005B005B08A3506F
:100CC00063588343635080235B04A3501C4B1D4A2D
:100CD000E250A02204339201E250FF221A4BE2506C
:100CE000FFF7F0FEC02201215200A3588B43A3500E
:100CF000FFF70BFFFFF70AFFB0235B055A78002AC6
:100D000002D05B78212B03D10022104BDA605A60AD
:100D10000F4A80210320FFF767FC0E48FFF726FBF0
:100D20000D4B1B684D331B78002B02D00B48FFF78F
:100D300059FBFFF7E3FA10BD480F001000002640F2
:100D400084050000010002008C050000E000234043
:100D50002C050008E405000864070008FC0F0010DB
:100D6000024BD86F032318407047C046040021404F
:100D700010B5FFF7D2F90749074ACB6F1A40074B66
:100D80001343CB67102306490A681A42FCD0FFF7C9
:100D9000C8F910BD04002140FCFF00000100FA0565
:100DA0008800214070B50F4C0600FFF7B6F9E36FDD
:100DB0000500DB439B0701D1FFF7DAFFB0230A4AA6
:100DC0009B00D650E36F094A09491A40094B134367
:100DD000E36710230A681A42FCD02800FFF7A1F944
:100DE00070BDC0460400214000002140FCFF00000F
:100DF000880021400300FA05002243088B4274D387
:100E000003098B425FD3030A8B4244D3030B8B420B
:100E100028D3030C8B420DD3FF22090212BA030C14
:100E20008B4202D31212090265D0030B8B4219D3F5
:100E300000E0090AC30B8B4201D3CB03C01A524115
:100E4000830B8B4201D38B03C01A5241430B8B425D
:100E500001D34B03C01A5241030B8B4201D30B0346
:100E6000C01A5241C30A8B4201D3CB02C01A52416D
:100E7000830A8B4201D38B02C01A5241430A8B4230
:100E800001D34B02C01A5241030A8B4201D30B0219
:100E9000C01A5241CDD2C3098B4201D3CB01C01A33
:100EA000524183098B4201D38B01C01A524143093D
:100EB0008B4201D34B01C01A524103098B4201D32B
:100EC0000B01C01A5241C3088B4201D3CB00C01A98
:100ED000524183088B4201D38B00C01A5241430810
:100EE0008B4201D34B00C01A5241411A00D2014635
:100EF000524110467047FFE701B5002000F006F8A8
:100F000002BDC0460029F7D076E770477047C0465B
:100F100003001218934200D1704719700133F9E7AA
:100F2000F8B5C046F8BC08BC9E467047F8B5C04648
:100F3000F8BC08BC9E46704701B40248844601BC18
:100F4000604700BFA90200080000214000002540C2
:100F50000000014000003440000024400000314007
:100F60000000324000001F410000234000001140FB
:100F700010101010101010101010800019005500E3
:100F8000F0000501053B04101C0101000FC000002A
:100F90000004000001010101011D3A577896000884
:100FA0002000101208000000001F00000010000FB9
:100FB000002000023F06080E00080009000A000B8E
:100FC00024282C30340000001000000090000000A5
:100FD00088000000080000008000000004F000000D
:100FE00000F00000400200002005A000D001000138
:100FF0008001A0012000000010000000030000009C
:101000000100000001000000000000000503600076
:1010100004000000010000000000000001000000CA
:10102000060460000800000044070008010B0010DF
:10103000000000000000001000000008C0000000D8
:1010400054100010C0000008600400006005000893
:101050000802000000093D000048E80100127A0083
:1010600000093D000000D00700093D00A00F00006E
:1010700004000000E9000010C100001080B230B58B
:10108000C00020D0104B07221C682300AC331B8803
:101090005A43236AD31819680029FCDA3E210B4B06
:1010A000062519600A4B0B491960A3210A4BC90098
:1010B0005D500A4958505858206A12180020506054
:1010C0005A58002AFCDA30BD6407000804012640A3
:1010D000080126401E1F0000000026401C050000DD
:1010E00010B54378FF2B11D100F0CCF90400032098
:1010F00000F0A8F9C3685A68012311681943116008
:1011000011681942FCD1200000F0ACF910BDF7B510
:1011100000900020019100F095F93F4D06002B68EA
:101120001A004C33B03214681B780419002B5AD0C3
:1011300000F070F9070003281BD000F0A3F9374A2C
:10114000374B0500D358002B3EDA364A01213000D8
:1011500000F0A8F9002837D10198FFF78FFF009B16
:10116000002B3ED02368002BFCDB00F063F9040069
:101170002BE0062000F066F92B68B0331B68C0181E
:101180000368002B02DA284C2000FEBD002000F08E
:1011900081F9264B9842F6D00023254A190012689F
:1011A000012000F03FF90025A842ECD1002000F01A
:1011B00071F91E4A1F4B904203D09D42E3D0013586
:1011C000F4E79D42B9D1DEE7174C032F05D1012189
:1011D000002000F04FF90028F9D1280000F042F972
:1011E000D2E7154CF1E700F04DF90E4A0500012158
:1011F000300000F057F9002809D1009B002B08D0DF
:101200002368002BFCDB00F015F90400E5E7064C31
:10121000E3E7094CE1E7C046640700080000264008
:101220001C0500007C050008050052000101880033
:101230008C050008F049020001005000F0B56B4D2C
:1012400007242B6885B01A000390AC3212885443EF
:101250001A6A5B68A21801920293019B1B68002B1B
:10126000FBDA00F0F7F82A681300AC33198807237B
:101270004B43212800D08CE0116A5B180221D8680A
:101280000143D960D968C9072BD515001600D96864
:1012900001CD0836F46F8C46E96F41180019FF2420
:1012A0000F6824043F02274064460068A4B2000A85
:1012B0000006274307439020DF600B684C4F000176
:1012C0003B4003430B601368F16F5B1819680F40D4
:1012D000384318601368EA6F9A181268F26F9B1807
:1012E0001B68424D2A681300AC33198807234B430F
:1012F000126A9B1800225A6004233E4A11690B436C
:101300001361039B012B49D030BF019B1B68002B4D
:10131000FBDA00F09FF8212842D1296807220B0050
:101320000124AC331B8800205A430B6AD318DD68B4
:1013300025421BD0081D0D68C06F2D4E281805686A
:10134000DB6835401B0C1B061B0C2B4303600B009A
:101350000833D86F0B6818180B6A0568D318DB6858
:101360002E401B0E1B023343036020000B6A022138
:10137000D218D3688B43D3601C4B1A681300AC336C
:10138000198807234B43126A9B1800225A6005B044
:10139000F0BD126A9B18184ADA60A2E720BFB4E7D2
:1013A0000020029BFC331B698342E5D1A320134B31
:1013B0001349144A144FC0000E681D5814680F607A
:1013C00006271F503E20106010483E371F501F5800
:1013D000002FFCDA02980E4FFC3007610E60A3214B
:1013E000C9005D5001201460C6E7C04664070008CC
:1013F000FF00FFFF00ED00E0980500080000264018
:1014000008012640040126401E1F00001C050000A4
:10141000AAAAAAAA01B40248844601BC604700BF38
:10142000610D001001B40248844601BC604700BF52
:101430004D04001001B40248844601BC604700BF5F
:101440007902001001B40248844601BC604700BF25
:10145000B501001001B40248844601BC604700BFDA
:101460002508001001B40248844601BC604700BF53
:101470002301001001B40248844601BC604700BF4C
:101480003106001001B40248844601BC604700BF29
:101490001B01001001B40248844601BC604700BF34
:1014A000A506001001B40248844601BC604700BF95
:1014B00031030010000000000000000000000000E8
:1014C000000000000000000000000000000000001C
:1020000000780408D12200100D00000045230010C4
:102010004523001045230010452300100000000058
:10202000000000000000000000000000412300103C
:102030004123001000000000412300104123001044
:1020400041230010412300104123001041230010C0
:1020500041230010412300104123001041230010B0
:1020600041230010412300104123001041230010A0
:102070004123001041230010412300104123001090
:1022800041230010412300104123001010B5054CDC
:10229000237833B9044B13B10448AFF30080012312
:1022A000237010BD6429000800000000E81D011023
:1022B00008B5034B1BB103490348AFF3008008BDC9
:1022C0000000000068290008E81D011070477047F1
:1022D000FFF7FCFF72B6144C144DAC4209DA2168CA
:1022E0006268A368043BA2BFC858D050FAE70C3418
:1022F000F3E70F490F4A00209142BCBF41F8040B9D
:10230000FAE70D480D490860BFF34F8F01F06CF9F3
:1023100001F046F9FFF7DBFF0CF00EFA03F0D8FCF2
:102320000CF0F6F9FEE70000F41D01100C1E011080
:102330006429000858AF00080020000808ED00E0FC
:10234000FEE7FEE700B504207146084202D0EFF335
:10235000098001E0EFF30880043003F087F8FEE71E
:102360000230800803D001300238FCD100BF00BF2A
:102370007047EFF3108072B6704780F31088704793
:1023800008B54FF40041034803F0C2FD024804F0D1
:10239000DBF908BD80290008100E0110024A1368FD
:1023A00001331360704700BFD4AD0008014B1868BB
:1023B000704700BFD4AD0008044B1B681844034BA2
:1023C0001B68C31A002BFADC704700BFD4AD0008AD
:1023D00010B586B0184B0FCB06AC04E90F000022F5
:1023E0004FF0FF31154801F0DBFD034620B14BB142
:1023F00073B1184606B010BD02A9104801F0A4FC44
:102400000346F4E70E490D4801F00AFD0346EFE7E5
:102410000C4C00220C49204601F0B8FB54F8040C87
:102420000123009307230222214601F0F5FB201F20
:1024300001F0BEFE0346DCE7C00A0110B4AD00089F
:10244000A0860100B8AD00089D23001008B5FFF775
:10245000BFFF00B101BE08BD08B500F03DF9002086
:1024600000F0B8F9642004F0AFFB012000F0B2F9ED
:10247000322004F0A9FB282000F0BAF9112000F066
:10248000B7F9642004F0A0FB362000F0B1F9A020D9
:1024900000F014FA3A2000F0ABF9652000F00EFAD3
:1024A000B22000F0A5F90C2000F008FA0C2000F092
:1024B00005FA002000F002FA332000F0FFF9332083
:1024C00000F0FCF9B72000F093F9352000F0F6F9A0
:1024D000BB2000F08DF92B2000F0F0F9C02000F0B7
:1024E00087F92C2000F0EAF9C22000F081F90120E0
:1024F00000F0E4F9FF2000F0E1F9C32000F078F9E2
:10250000112000F0DBF9C42000F072F9202000F067
:10251000D5F9C62000F06CF90F2000F0CFF9D020DB
:1025200000F066F9A42000F0C9F9A12000F0C6F976
:10253000E02000F05DF9D02000F0C0F9002000F0AC
:10254000BDF9052000F0BAF90E2000F0B7F915200A
:1025500000F0B4F90D2000F0B1F9372000F0AEF929
:10256000432000F0ABF9472000F0A8F9092000F063
:10257000A5F9152000F0A2F9122000F09FF916200D
:1025800000F09CF9192000F099F9E12000F030F9F1
:10259000D02000F093F9002000F090F9052000F021
:1025A0008DF90D2000F08AF90C2000F087F9062043
:1025B00000F084F92D2000F081F9442000F07EF92C
:1025C000402000F07BF90E2000F078F91C2000F08C
:1025D00075F9182000F072F9162000F06FF9192033
:1025E00000F06CF92B2000F003F9002000F066F9F0
:1025F000002000F063F9002000F060F9EF2000F007
:102600005DF92A2000F0F4F8002000F057F90020CE
:1026100000F054F9012000F051F93F2000F04EF98C
:102620000A2004F0D1FA292000F0E2F808BD0000E9
:1026300030B5A1B000241B941C941D941E941F94CB
:102640006822214601A80CF0BFF82346224614490F
:10265000144804F0F5F905464FF4A072F021204625
:1026600006F083F94FF4A072F021204606F094F9A9
:1026700006231D931BA9284604F0BCFE0A4B0193B8
:102680000A4B02930A4B04930A4B06930A4B089396
:102690000A4B0B4A01A9284604F0CCFE21B030BDFC
:1026A00054150110AC150110F1270010BD280010C1
:1026B00089290010692A0010C92B0010257B001001
:1026C000CD7E0010012904D108B5FFF7C5FE00201A
:1026D00008BD4FF0FF30704708B5002306220121E6
:1026E0004FF4102000F0B2FF034680B1BBB1EBB154
:1026F0001BB34BB37BB3002B35D0002B3AD0002B50
:1027000041D0002B46D0002B4CD0184608BD0023EA
:1027100006220121274800F099FF0346E6E706223A
:102720000121254800F092FF0346E0E7062201213F
:10273000224800F08BFF0346DAE7062201212048F9
:1027400000F084FF0346D4E706220121022000F0B6
:102750007DFF0346CEE7062201214FF4502000F012
:1027600075FF0346C7E706220121164800F06EFFF9
:102770000346C2E70123062219464FF4402000F029
:1027800065FF0346BBE7062201210F4800F05EFF0C
:102790000346B6E70123062219460C4800F056FF0F
:1027A0000346B0E7012306221946094800F04EFF10
:1027B0000346AAE70100090002000900040009001D
:1027C0000500090001000D0001000C0002000C00D2
:1027D00003000C00054B1B689B6903F5C06310B137
:1027E00004229A60704704225A607047D8AD0008EE
:1027F000314B1B689A690221C2F804169A6902F5E6
:10280000906210F0010F3ED1012151609A6902F5EA
:10281000906210F0020F39D1022151609A6902F5DD
:10282000906210F0040F34D1042151609A6902F5CE
:10283000906210F0080F2FD1102151609A6902F5B3
:10284000906210F0100F2AD1202151609A6910F087
:10285000200F27D1042151609A6902F5D06210F04F
:10286000400F22D1012151609A6902F5D062C1095D
:102870001ED0022191609A690121C2F804169B6959
:10288000C3F80816704701219160BFE702219160EB
:10289000C4E704219160C9E710219160CEE72021AF
:1028A0009160D3E704219160D6E701219160DBE7D5
:1028B00002215160DFE700BFD8AD0008314B1B6833
:1028C0009A690221C2F808169A6902F5906210F01E
:1028D000010F3ED1012151609A6902F5906210F01A
:1028E000020F39D1022151609A6902F5906210F00D
:1028F000040F34D1042151609A6902F5906210F0FE
:10290000080F2FD1102151609A6902F5906210F0E2
:10291000100F2AD1202151609A6910F0200F27D181
:10292000042151609A6902F5D06210F0400F22D163
:10293000012151609A6902F5D062C1091ED00221BD
:1029400091609A690121C2F804169B69C3F80816C0
:10295000704701219160BFE702219160C4E7042123
:102960009160C9E710219160CEE720219160D3E703
:1029700004219160D6E701219160DBE702215160DB
:10298000DFE700BFD8AD000870B4364B1B689B6909
:102990000222C3F80826002422E00126AE602CE0C3
:1029A0000226AE6031E00426AE6036E01026AE604E
:1029B0003BE02026AE6040E00426AE6043E0012606
:1029C000AE609D6905F5D065D20945D00222AA60A6
:1029D0009A690125C2F804569B69C3F808562C442D
:1029E0008C423CDA025D1F4B1B689D6905F59065C2
:1029F00012F0010FD1D101266E609D6905F5906539
:102A000012F0020FCCD102266E609D6905F590652B
:102A100012F0040FC7D104266E609D6905F590651C
:102A200012F0080FC2D110266E609D6905F5906501
:102A300012F0100FBDD120266E609D6912F0200F9C
:102A4000BAD104266E609D6905F5D06512F0400F7D
:102A5000B5D101266E60B4E702226A60B8E770BCA7
:102A6000704700BFD8AD00082DE9F047504C2368EF
:102A70009B690225C3F80856002211464FF4102026
:102A800000F028FEDFF834A100221146504600F085
:102A900021FEDFF82C9100221146484600F01AFE74
:102AA000DFF8208100221146404600F013FE414F1E
:102AB00000221146384600F00DFE0022114628463D
:102AC00000F008FE002211464FF4502000F002FEF4
:102AD000394E00221146304600F0FCFD2268936911
:102AE0000821C3F804169269D2F8903403F0010368
:102AF000D2F89044C4F34004E4B243EA4404D2F868
:102B00009034C3F38003DBB244EA8304D2F89034F8
:102B1000C3F30013DBB244EAC304D2F89034C3F326
:102B20004013DBB244EA03141369C3F38003DBB23E
:102B300044EA4314D2F8903603F00103DBB244EACE
:102B40008314D2F89036C3F34003DBB244EAC314D3
:102B5000C2F80816062201214FF4102000F0BAFD39
:102B600006220121504600F0B5FD0622012148460B
:102B700000F0B0FD06220121404600F0ABFD062228
:102B80000121384600F0A6FD06220121284600F06A
:102B9000A1FD062201214FF4502000F09BFD0622EA
:102BA0000121304600F096FD2046BDE8F08700BFC9
:102BB000D8AD00080500090001000D000100090062
:102BC0000200090004000900F8B505460C464F4B09
:102BD0001B689B690226C3F80866002211464FF461
:102BE000102000F077FD00221146494800F072FDE8
:102BF00000221146474800F06DFD0022114646486C
:102C000000F068FD00221146444800F063FD0022F8
:102C10001146304600F05EFD002211464FF4502070
:102C200000F058FD002211463D4800F053FD002100
:102C30003EE0364B1A6893690820C3F8040692698F
:102C4000D2F8903403F00103D2F89064C6F3400642
:102C5000F6B243EA4603D2F89064C6F38006F6B2B1
:102C600043EA8603D2F89064C6F30016F6B243EA4C
:102C7000C603D2F89064C6F34016F6B243EA0613D0
:102C80001669C6F38006F6B243EA4613D2F8906698
:102C900006F00106F6B243EA8613D2F89066C6F350
:102CA0004006F6B243EAC613C2F808066B54013177
:102CB000A142BEDB062201214FF4102000F00AFDE4
:102CC00006220121124800F005FD062201211148CB
:102CD00000F000FD062201210F4800F0FBFC062257
:102CE00001210E4800F0F6FC06220121022000F02E
:102CF000F1FC062201214FF4502000F0EBFC0622EB
:102D00000121074800F0E6FCF8BD00BFD8AD00087F
:102D10000100090002000900040009000500090083
:102D200001000D0008B500F0D5F800F007F800F03C
:102D3000C3F800F037F800F045F808BD08B51749AA
:102D40000A6892F86C3003F00303906843F0804304
:102D5000C0F800349368B2F870201344DA6842F483
:102D60007F42DA600A6892F86F1003238B4092F872
:102D70006C1092F86E0001FA00F0034301F00301B9
:102D800090680B4343F00043C0F800349368D3F8D5
:102D90000034034800F040FD08BD00BFD8AD000876
:102DA000D00A0110064B1B6893F83D20332A06D940
:102DB00093F86C2002F003029B68C3F8CC2C704798
:102DC000D8AD000810B5264C264A0021204601F057
:102DD000C3FA254800F020FD244A0121204601F0D5
:102DE000BBFA234800F018FD224800F015FD04F559
:102DF0004074214A0421204601F0AEFA1F4800F039
:102E00000BFD1F4A0621204601F0A6FA1D4800F0DE
:102E100003FD1D4A0721204601F09EFA1B4800F0E1
:102E2000FBFC1B4800F0F8FC1A4800F0F5FC1A48BF
:102E300000F0F2FC194800F0EFFC194800F0ECFC3F
:102E4000184800F0E9FC184800F0E6FC174800F0CC
:102E5000E3FC174800F0E0FC164800F0DDFC10BD74
:102E600000003240A80B0110DC0B0110E00B011038
:102E7000140C0110FC0A0110700B0110A40B0110BE
:102E8000380B01106C0B0110000B0110340B0110FA
:102E9000D40A0110D80A0110DC0A0110E00A01105E
:102EA000E40A0110E80A0110EC0A0110F00A01100E
:102EB000F40A0110F80A0110044B332242F208010F
:102EC0005A5042F210015A50704700BF0000314082
:102ED000FEE7000070B582B09621002002F018FBDA
:102EE00002F0B6FA00283BD0012002F0C1FD01201B
:102EF00002F0DCFC6E4A536C23F47F4343F46853C6
:102F00005364536CC3F307233A2B46D0694B1B68B9
:102F100093F83C2032B16849D1F8802322F0300286
:102F2000C1F880231968D3F884208B5823F47F4399
:102F30008B50604A13681868D3F88010435823F008
:102F40007F4343F08073435013681868D3F88010B0
:102F5000435823F47F434350136893F83B5026E0D3
:102F600002F066FA544BD3F8803113F0010F06D10A
:102F7000514AD2F80C3523F00043C2F80C354E4BC1
:102F8000D3F80C2542F00042C3F80C25D3F80C25E9
:102F900042F00102C3F80C25A6E7536C23F000535E
:102FA00023F4685343F468535364AFE7013DDDB144
:102FB0006C1E404B1B6893F83B309C42F6D23E4E51
:102FC00005F27F1456F8243023F0405343F00053A9
:102FD00046F82430012002F021FA56F8243023F07C
:102FE000004346F82430E1E70021012001F0A2FD72
:102FF000304B1B6893F83C3003B901BE2E4BD3F81D
:10300000803313F00F0F3BD02B4BD3F8882522F0E1
:10301000405242F00052C3F88825D3F8802522F0B0
:103020000042C3F88025D3F88C2522F00042C3F873
:103030008C250021084601F07DFD1E4B1B6893F88E
:103040003C3033B11C4AD2F8803323F00F03C2F86E
:1030500080331A4D002400942346224621462846F8
:1030600001F094FA0094234622460121284601F0FB
:103070008DFA0F4A136843F008031360104C25E0E3
:10308000002001F085FD40F211139842BCD1094B9C
:103090001B6893F83C30002BB6D0074AD2F8803337
:1030A00023F00F0343F00103C2F88033ACE700BF05
:1030B00000002740D8AD0008000026400000324044
:1030C00040420F00012002F0A9F9013CA84B1B6906
:1030D00013F0040F01D1002CF4D1002C00F0318149
:1030E0000023002B40F02F81A24AD2F8003523F0B4
:1030F000030343F00103C2F800359F4C23681968AD
:10310000D3F884208B5823F47F438B5023681968AD
:10311000D3F880208B5823F07F438B5023681968A5
:10312000D3F880208B5823F47F438B50002101205B
:1031300001F000FD236893F83C3043B18D4AD2F88A
:10314000803323F00F0343F00103C2F880330021E2
:10315000084601F0EFFC0021022001F0EBFC002109
:10316000032001F0E7FC0021042001F0E3FC834888
:1031700001F02CFD002840F0EA80814801F0D6FDE6
:10318000002840F0E8807C4B1B6893F83C2032B16B
:103190007849D1F8802322F00F02C1F8802393F8F8
:1031A0003C3033B1734AD2F8803323F03003C2F895
:1031B00080330021012001F0BDFC7249012001F0A3
:1031C00017FE002840F0CB8042F21071012001F080
:1031D0009DFE002840F0C780674B1B6893F83C2099
:1031E000012A08D96349D1F8842322F00F0242F062
:1031F0000102C1F8842393F83C20012A06D95D49D5
:10320000D1F8842322F03002C1F8842393F83C30B3
:10321000012B06D9574AD2F8843343F00043C2F851
:103220008433554B1B6893F83C20022A06D9514938
:10323000D1F8882322F00F02C1F8882393F83C20AC
:10324000022A08D94B49D1F8882322F0300242F0F3
:103250001002C1F8882393F83C30022B06D9454A66
:10326000D2F8883343F00043C2F88833424B1B68DE
:1032700093F83C20032A08D93E49D1F88C2322F048
:103280000F0242F00102C1F88C2393F83C20032A7C
:1032900006D93849D1F88C2322F03002C1F88C23AA
:1032A00093F83C30032B06D9324AD2F88C3343F0E2
:1032B0000043C2F88C332F4CD4F8043523F000437C
:1032C000C4F80435D4F8043523F4407323F0010323
:1032D000C4F80435D4F8043523F47F03C4F8043566
:1032E000D4F8043543F00043C4F80435002002F05C
:1032F0001DFC1F4A136823F440731360D4F80C3587
:1033000043F00043C4F80C35D4F80C3543F0010306
:10331000C4F80C356421002002F0FAF800F062F8DD
:10332000194800F079FA194800F076FA184800F0C8
:1033300073FA184800F070FA174800F06DFA02B0FE
:1033400070BD164BCDE60520FFF7C2FDCCE604208C
:10335000FFF7BEFD11E70420FFF7BAFD13E70320D6
:10336000FFF7B6FD30E70320FFF7B2FD34E700BFFB
:103370000000274000002640D8AD0008180C0110BE
:10338000400D0300400C01102C0C0110300C0110FA
:10339000340C0110380C01103C0C011002004A00E2
:1033A00008B5044802F09EFA08B1002008BD0248A2
:1033B000FCE700BF8C2200080000020610B500F0F8
:1033C00029FA0446FFF7AEFC0CB1204610BDFFF70A
:1033D000E7FF0446F9E708B5012001F0C1FA08BD8E
:1033E0007047000030B4614BD3F8802302F00F0225
:1033F00002F1D00153F8213013F007031BD0042B46
:103400001BD05B4B002A43D1584AD2F8900500F0FC
:103410000100D2F88815C1F30171D2F8882512F0A5
:10342000405F1BD0514AD2F88825C2F30172012AAD
:1034300015D0002213E04F4BE4E702F1C0034B49E3
:1034400051F8233003F01F03112B04D0132B02D0AB
:103450004FF4FA43D6E74FF40043D3E7012202B119
:1034600008B9032917D1414AD2F88015C1F31101D7
:10347000D2F88405C0F30C00D2F88025C2F30062B4
:103480000132B3FBF0F301FB03F3B3FBF2F302E011
:10349000013A012A32D9354AD2F88023C2F3011207
:1034A000D340354A1360354AD2F89010C1F3072152
:1034B00001311269120E0132B3FBF2F230480260A0
:1034C000B3FBF1F32F4A13602F4A136003F5742204
:1034D00002F23F222D49A1FB0212C2F387422C497E
:1034E0000A7003F2E7332B4AA2FB03239B092A4A03
:1034F0001360DB03294A136030BC70471B4902F597
:10350000C87051F8204004F0010402F5C07551F86C
:103510002500C0F3017051F8251011F0405F09D06B
:103520002946124D55F82110C1F30171012902D02D
:10353000002100E0012101B10CB90328ABD10B4CF3
:1035400002F5C07254F8221001F07F0154F82200F5
:10355000C0F3042054F82220C2F3044201FB03F319
:10356000B3FBF0F3B3FBF2F395E700BF0000264096
:1035700000366E0100127A00AC22000800002140E3
:10358000B0220008A8220008B822000883DE1B43EE
:10359000C0220008D34D6210BC220008B4220008EB
:1035A00008B50D4800F010FEFFF71AFFFFF71AFFED
:1035B00000221146032001F01DFA084801F07CF8B2
:1035C000074B1B6893F84D3013B900F0BDFE08BDE2
:1035D000044801F0C5F8F8E7380D011088A9000883
:1035E000D8AD0008480C011008B5FEF7C2FE074A26
:1035F000D2F8883043F47003C2F88830BFF34F8F9D
:10360000BFF36F8FFEF7B9FE08BD00BF00ED00E00D
:10361000072811D8DFE800F004041306080A0C0E8E
:1036200008200DE00B200BE00C2009E00D2007E046
:103630000E2005E00F2003E001BE082000E00A2074
:10364000012900D0704700F00700FBE72DE9F043A7
:1036500087B00446884617461E4608238DF8083072
:1036600005148DF809508DF80A00029BADF814304E
:103670001B0C8DF81630059BADF810301B0C8DF827
:103680001230049BADF80C301B0C8DF80E3003A8E3
:1036900000F0C2F8814618B1484607B0BDE8F08393
:1036A00041463846FFF7B4FF0246EDB20E2D0BD867
:1036B000074B1B68986900EBC51000230093334645
:1036C000E1B200F063FFE7E7014B1B689869F4E79C
:1036D000D8AD000838B504461046FFF799FFC4F38B
:1036E00007430E2B1CD9114B1B689969E4B2072CB8
:1036F00000D901BE30F00F0300D001BEA4000B4B77
:103700001B6893F879506B580F22A24023EA0203FA
:1037100000F00F0000FA04F41C436C50002038BD88
:10372000024A1268916901EBC311DFE7D8AD0008C6
:10373000F0B4304C34F81060441C152C16D8E4B2A8
:103740002C4D35F81450012484402B4F3C4246D078
:10375000841E112C12D8DFE804F014111611110B7D
:103760000D111111111111111111110FF325EAE7AA
:10377000224C09E0224C07E0224C05E001BE1D80EE
:103780002FE0214C00E0214C1D8054B30238112859
:1037900012D8DFE800F009111411110B0D111111ED
:1037A000111111111111110F012709E0032707E071
:1037B000102705E0022703E001BE002700E00427F0
:1037C000B9420ED2605C304412FA80F21A804A1C70
:1037D000BA4206DA21444D783544ADB201E00E44D8
:1037E0001E801B88AB4202D20020F0BC7047084804
:1037F000FBE700BFA00C011094010800880C011029
:103800008C0C01109C0C0110800C0110840C011018
:103810000000020400207047F0B583B00446FEF7B4
:10382000A8FD06460DF10603A27861782078FFF71F
:103830007FFF054670B9BDF80630C3F3C70203F039
:1038400007031549895C012202FA03F3194214BFE8
:103850001746002705B9EFB92DB13046FEF78DFDAB
:10386000284603B0F0BD0DF10603A27861782078F8
:10387000FFF75EFF05460028EFD1BDF80630C3F321
:10388000C70103F00703044801229A40435C134335
:103890004354E2E7014DE0E708AB000801000204F1
:1038A00030B583B00446FEF764FD05460DF106030E
:1038B000A27861782078FFF73BFF014660B9BDF838
:1038C0000630C3F3C70003F00703074C01229A40F8
:1038D000235C23EA0203235401B101BE2846FEF70C
:1038E0004CFD03B030BD00BF08AB00082DE9F04728
:1038F00082B007468A46504B33F81030421C152AD6
:1039000017D8D2B24C4931F812804FF0010909FAA8
:1039100007F929F07F4929F4770929F47E4929F02C
:103920006B09A8EB03081FFA88F8002426462546F1
:1039300041E04FF0F308E8E78AF800708AF8015098
:103940008AF8026073E03D4A09E03D4A07E03D4ADB
:1039500005E03D4A03E001BE002200E03B4ABB1EF9
:10396000112B12D8DFE803F009111411110B0D11FE
:103970001111111111111111110F012309E003236C
:1039800007E0102305E0022303E001BE002300E06E
:103990000423691C994204DA2A445278631C9A422F
:1039A00002D00136F6B204E0CDB2002601E00135C6
:1039B000EDB20134A4B2444538D28DF804708DF8CC
:1039C00005508DF8066001A8FFF726FF0346002882
:1039D000B2D0B9F1000FEAD0BB1E112BBBD801A2A7
:1039E00052F823F047390010573900105D390010A4
:1039F00057390010573900104B3900104F3900105B
:103A00005739001057390010573900105739001036
:103A10005739001057390010573900105739001026
:103A2000573900105739001053390010084B184609
:103A300002B0BDE8F08700BFA00C0110800C01109F
:103A4000880C01108C0C01109C0C0110840C0110CE
:103A5000020002042DE9F04782B081460D461AB1FA
:103A60004FF0030A144F1BE08A46FBE70134AFB165
:103A7000A04513DD04238DF804308DF80550E6B21F
:103A80008DF806600DEB0300FFF7C6FE0028EDD1B0
:103A900089F8005089F801600027E7E70135EDB2A9
:103AA00037B1554504D8054B13F805800024DEE7EF
:103AB000384602B0BDE8F087020002047C0C011019
:103AC00000B583B004238DF8043003788DF80530F9
:103AD00043788DF8063001A8FFF7E2FE03B05DF8E9
:103AE00004FB000038B5EFF30581103989B208B244
:103AF000002301E00133DBB2012B10D8174A02EB9F
:103B00000312927B9042F5DB144C04EB0314247BEC
:103B10001444A042EEDACCB2A41AE4B200E00024CD
:103B2000012B01D901BE38BD0C4A1B01D118D55853
:103B30004B7B23440A4A52F8232013682BB105EB30
:103B40008411D1F830115068984705EB8414032391
:103B5000C4F83031D4F83031E5E700BFCC0C0110A7
:103B600028AB00084278074B03EB02135B7B82789B
:103B70001344DBB2044A42F8231000230B604B606D
:103B8000704700BFCC0C011028AB00082DE9F041B4
:103B900082B005468846174643781B4E06EB031352
:103BA0005C7B83781C44E4B2FEF7E3FB174B53F8CD
:103BB0002430C3F800805F60FEF7DFFB6B7806EB14
:103BC0000316B47BAB781C4425B26A09104B53F83A
:103BD000223004F01F02D34013F0010F10D1ADF8D2
:103BE0000050072301930B49684601F0E5FB04F000
:103BF0001F046D09012303FA04F4054B43F8254023
:103C000002B0BDE8F08100BFCC0C011028AB000869
:103C100000E100E0E53A0010F0B49DF810608D7806
:103C200000EB8514D4F838413EB122EA040700EBDA
:103C30008515C5F83071D5F830518D78B6B114437B
:103C400000EB8510C0F8384148780A4A02EB0012B0
:103C5000927B89780A4412B25B01DBB202F16042C6
:103C600002F5614282F80033F0BC704724EA020496
:103C7000E6E700BFCC0C011038B5044628B36179E3
:103C80002D4A02EB0112927BA1790A4411B202F093
:103C90001F024909012000FA02F22031274840F8AA
:103CA0002120BFF34F8FBFF36F8F226862B1A179DC
:103CB00001238B405360201DFFF7F2FD002323609A
:103CC00016232371A37B13B938BD01BED7E7237B2D
:103CD000627B032B2AD80BB9072A06D9012B1FD0E8
:103CE000022B20D0032B23D122BB1549096891F860
:103CF0006D50AB400320A840034091F86C00024097
:103D00008968134343F08043C1F80034002303B1B2
:103D100001BE04F10C00FFF7D3FE0023A373D3E729
:103D20000F2AE2D9DCE7032ADFD9DBE7054BEEE710
:103D3000044BECE7034BEAE7CC0C011000E100E098
:103D4000D8AD000801004A0070B594B0427D0B78F0
:103D50009A4239D00D4604464C22304901A80AF057
:103D60000FFD6B680193AB6806932B7883F001031A
:103D70000393AB78002B48D0002305936B78012B7D
:103D800047D0022B43D0002304932068A17900EB95
:103D90008113D3F8386101AA01F06EFF01AAA1795D
:103DA000206801F0DFFE2368A27903EB8213C3F8D9
:103DB0003861034628B92A7862756A782275AA782C
:103DC000A275184614B070BD027D4B789A42C1D1DD
:103DD000827D8B789A42BDD103688479CA6803EBEF
:103DE0008413C3F80821036884794A6803EB8413B9
:103DF000C3F814218B7873B1036880798A6803EB68
:103E00008013C3F80C210023DBE70223B5E703236B
:103E1000BAE70123B8E70023D3E700BFEC0C011099
:103E2000827B002A00F0AC80F8B50C4605460020E5
:103E300001F0D0F9564B1B681A68D3F88030D3587C
:103E40001B0E013300EB5300B0FBF3F3B3FBF4F4B0
:103E5000002C00F097802A7B697B631E002A5CD1CE
:103E6000072977D8FF2B77D8494A12689068B2F8AB
:103E70007020104450F8212022F47F421B029BB294
:103E8000134340F82130002100297DD12B7B6E7B2C
:103E9000032B6FD80BB9072E07D9012B64D0022B47
:103EA00065D0032B68D1002E68D1394A106890F88C
:103EB0006F20032707FA02F290F86CE090F86EC0CA
:103EC0000EFA0CFC42EA0C0290F86DC003FA0CF3F7
:103ED00007FA0CF73B40134306EA0E0682683343A9
:103EE00043F00043C2F800348368D3F8003400295B
:103EF0004CD1002001F06EF9254B1B681A68D3F8ED
:103F00008030D3581B0E013300EB5300B0FBF3F3AA
:103F1000B3FBF4F42C61002035E0012A1ED10F29F7
:103F20001ED8B3F5803F1DD2194A12689068B2F8C6
:103F30007220104450F8212022F47F0222F47F42A4
:103F40001B0223F07F4323F0FF03134340F821308B
:103F5000002199E70F4997E70E4995E70D4993E747
:103F60000C4991E70B498FE70F2E9ED997E7032E57
:103F70009BD996E70749BAE70649B8E70549B6E786
:103F8000054870470548F8BD0448FCE70348FAE7D0
:103F9000D8AD000801004A00030052040100520499
:103FA0002DE9F041044630B1B1F1FF3F05D0794D24
:103FB0002846BDE8F08101BEF6E7164604F1040884
:103FC00041461320FFF792FC05460028F0D16379A3
:103FD000714A1B01D118D35823600F79A3791F446C
:103FE000FFB2002E73D03388A381A07301F0F2F8E2
:103FF0006A4B1B681A68D3F88030D3581B0E013304
:1040000000EB5300B0FBF3F3217B627B012900D965
:1040100001BE00293FD1072A00D901BE5F490868C7
:104020008168B0F87000014451F82220C2F30722E1
:104030000132B3FBF2F2226133787178574A126889
:1040400092F83D0087423AD2032B3AD80BB90729A0
:1040500007D9012B2DD0022B2ED0032B33D10029D1
:1040600033D192F86D60B3400320B040034092F822
:104070006C00014092680B4307F5407742F8273007
:104080000023002B72D1002D69D0002D70D0204666
:10409000FFF7F2FD8CE70F2A00D901BE3F490868FF
:1040A0008168B0F87200014451F82220C2F30F2257
:1040B000BEE70F29D5D9CEE70329D2D9CDE7384BB2
:1040C000DFE7374BDDE7364BDBE7354BD9E700223F
:1040D000012104F10C00FFF7BDFC05460028D2D1F8
:1040E0000123A3732F492046FFF79AFE05460028B7
:1040F000C9D1237B617B294A126892F83D0087422F
:1041000025D2032B25D80BB9072906D9012B18D0A6
:10411000022B19D0032B1ED1F9B992F86D60B34070
:104120000320B040034092F86C00014092680B43BA
:1041300007F5407742F827300023002BA3D01A4D13
:10414000A3E70F29E9D9E3E70329E6D9E2E7144B0E
:10415000F3E7134BF1E7124BEFE7114BEDE7134A8F
:10416000A179206801F0FEFC05468EE70E4D8CE734
:1041700004F118014046FFF7F5FC2368A27903EB30
:1041800082130022C3F838212268A17901238B40D1
:1041900093600DE700005204CC0C0110D8AD00086C
:1041A00001004A0040420F0001005204EC0C0110D3
:1041B000034630B11A68997901238B4013610020BE
:1041C000704701BEF6E70000014B1860704700BF62
:1041D000D8AD00081D4B98422FD00ED91C4B9842E9
:1041E00031D019D91B4B984223D00133984222D0A9
:1041F000023B98421BD01848704740281FD006D970
:1042000080281ED0B0F5807FF5D11048704760B18E
:104210001028F0D111487047B0F1204F05D0104B55
:104220009842E8D14FF4A0007047002070470D4835
:1042300070470D4870470D487047044870470C4858
:1042400070470C4870474FF4A400704706005200B6
:10425000010000F0040000F0FF00520001005000D7
:10426000090000A0010052000200520003005200A9
:10427000020050000500520010B5104B1B6893F867
:104280002E30012B16D90D4B1C68236AB4F8AC20D4
:104290001344D4F8B020D358002B0DDB084B18681A
:1042A000FFF798FF636801229A6063689B68002BA0
:1042B000FBD110BD01BEE6E70248FAE7D8AD000821
:1042C000A8AB0008020050001A4B186028B1022366
:1042D0000370FF23437000234380174B1B6893F840
:1042E0004C2002B9704700B583B0B3F93630ADF851
:1042F0000030002301931149684601F05DF8BDF9D3
:104300000030002B07DB03F01F015B0901228A400C
:104310000B4941F82320084B1B6893F84D3013B923
:1043200003B05DF804FB02220649012000F0A6FA62
:10433000F6E700BFB8AB0008D8AD00081D2700089D
:1043400000E100E07125000808B50248FFF7BCFF56
:1043500008BD00BFC0280008002800F00F81F0B59C
:104360000446002A00F00C81072900D901BE136819
:10437000012B00D901BE536833F00F0300D001BEFA
:10438000137A33F01F0300D001BED368032B00D98A
:1043900001BE1369012B00D901BE5369012B00D95D
:1043A00001BE9369012B00D901BED369032B00D94B
:1043B00001BE136A012B00D901BE536A012B00D93B
:1043C00001BE936A012B00D901BED36A032B00D929
:1043D00001BE136B072B00D901BE1368072900D952
:1043E00001BE012B00D901BE002B40F0B480012397
:1043F0008B4063605368072900D901BE33F00F007A
:1044000000D001BE8F005F48006890F87960305995
:104410000F25BD4020EA050003F00F03BB40034316
:104420003351107A072900D901BE30F01F0300D0A4
:1044300001BE544B1D68AB69E31ADB096D691B01B2
:10444000EE18032940F28B800B1F7568DB001F27D5
:104450009F4025EA070500F01F0098402843706040
:10446000D068082900D901BE032800D901BE4B003D
:10447000444D2D6895F878703D5903269E4025EAF5
:10448000060500F0030098402843385115690829B3
:1044900000D901BE012D00D901BEA069012606FA8E
:1044A00001F76FEA070C00EA0C0035408D40054328
:1044B000A5615069072900D901BE012800D901BEB4
:1044C000304D2E6896F87AE054F80E6006EA0C0635
:1044D00000F001008840304344F80E0003F1100C56
:1044E000032606FA0CF63E432B6893F87B70E359DB
:1044F00023EA0606936903F001038B403343D06936
:1045000000F0030000FA0CF00343E3512B6893F82A
:104510007C00255825F0FF05136A03F00103566A55
:10452000760006F002063343966AB60006F00406EB
:104530003343D66AF60006F018063343126B520175
:10454000D2B21343890001F47E7103FA01F12943C9
:1045500021500020F0BD01238B40A3604AE7EE58B4
:104560004FEAC10C1F2707FA0CF726EA070600F0EE
:104570001F0000FA0CF03043E85071E70248704722
:104580000148E7E7D8AD000801005A00F0B49DF8F3
:104590001040072900D901BE32F00F0500D001BE3E
:1045A000012B00D901BE34F01F0500D001BE056803
:1045B00001268E4025EA060503F001038B402B43BC
:1045C00003601E4B1B6893F8796033588F000F25EA
:1045D000BD4023EA050302F00F02BA401A433250ED
:1045E000072900D901BE34F01F0300D001BE134BD0
:1045F0001B689A69801AC0095B6900011D180329AC
:104600000ED904396B68C9001F228A4023EA0203CD
:1046100004F01F0404FA01F119436960F0BC70470B
:104620001A58C9001F258D4022EA050204F01F0414
:1046300004FA01F111431950F0E700BFD8AD0008AA
:10464000084B1B68D3F8B0301B58002B07DA0B0C53
:104650001B0403B101BE89B24160002070470248CB
:10466000704700BFD8AD000801008A000368002B26
:1046700008DAC2600B0C1B0403B101BE89B2816071
:10468000002070470048704701008A000A4651B177
:10469000074B1B68D3F8B0301B58002B05DAC368F2
:1046A00013600020704701BEF2E70248704700BF68
:1046B000D8AD000801008A00034B1B6803B17047A6
:1046C000014B1860FBE700BFBCAB0008F0B4049ED0
:1046D000214C2468002C3DD01F4C27682C2404FB5F
:1046E00000F03C18DDB23D50C3F3072060601B0CA6
:1046F000A3601A4B1B6893F82E309D4200D301BE75
:10470000164B1B68186AB3F8AC7007FB05052561EA
:10471000606893F82F30984200D301BE0F4B1B689E
:104720001B6A803003EB40136361A568280C00040A
:1047300000B101BE00B101BEA8B240EA05409860D8
:10474000E26121620023A36116B1B6F90030A381B2
:10475000F0BC704701BEBFE7BCAB0008D8AD000895
:10476000F0B58FB00446002840D0A369072B00D9CC
:1047700001BEE36A002B3BD0236B002B3AD007AD80
:1047800004F114060FCE0FC537682F6002AD264620
:104790000FCE0FC533682B60174B1B689B8E079A93
:1047A0001344ADF83030089B0D93A26AE16A0CAD5A
:1047B00000953B460A98FFF789FF00210091069B70
:1047C0000A460598FFF782FF216B284600F0F4FDAA
:1047D000BDF93030002B07DB03F01F015B0901221C
:1047E0008A40064941F823200FB0F0BD01BEBCE766
:1047F00001BEC1E701BEC2E7D8AD000800E100E09C
:10480000F0B416464AB31A4A126842B3184A1268FC
:104810002C2404FB002004FB01214A68012404FA33
:1048200002F212044568AC400569D5B18F69D7B969
:104830002D68002D19DA35882A4332600269D66066
:1048400001228A614B620269230C1B0403B101BE81
:10485000A4B294600020F0BC704701BED3E701BE53
:10486000D4E70448F7E70448F5E70348F3E700BF57
:10487000BCAB000804028A0007028A0010B40D4B8A
:104880001B6883B10B4B1B682C2404FB0030036AAC
:104890005BB1C36993420AD9036A43F8221000202E
:1048A0005DF8044B704701BEECE701BEF1E702483A
:1048B000F6E700BFBCAB00080A028A0070B582B000
:1048C00000230193044628B323692BB363692BB3F8
:1048D000236A2BB36369DD682A0C0BD02A0C1204FF
:1048E0001A601B6820691D4B1B68D3F8B0301B5839
:1048F000002B17DBADB24DB163691D601B68636AA5
:104900003BB39847002363620023A36163691B687C
:1049100002B070BD01BED7E701BED7E701BED7E741
:1049200001BED7E701A9FFF7B1FE60B9019803689E
:104930001E0CDBB2E2699A4206D9226A52F8233091
:1049400013B1984700E0002631462069FFF778FE52
:10495000D0E7A36A002BD7D09847D5E7D8AD000899
:1049600008B5064B1B683BB1044B1B682C2202FBAD
:104970000030FFF7A3FF08BD01BEF5E7BCAB0008A0
:10498000184B1B6893F82E20824223D921B30A6862
:1049900012F01F0F22D170B50D461C6AB3F8AC306F
:1049A00003FB0044104E3460D2080021686809F00F
:1049B0000BFF00212046FFF743FE2A460021306806
:1049C000FFF754FE60B900213068FFF739FE40B1AF
:1049D000064806E006487047054870470448704797
:1049E000024870BDD8AD0008C0AB000801018A00C4
:1049F00003018A0008B513464AB1E3B1E9B11A468A
:104A00000B460F490B604A60FFF7BAFF08BD00294B
:104A1000F3D10C4B1B6893F82E30984200D301BEA3
:104A2000084B1B681A6AB3F8AC3003FB0020064B36
:104A300018600020EAE70548E8E70448E6E700BF19
:104A4000C4280008D8AD0008C0AB000803018A00E4
:104A50002DE9F041194B1B68DD682B6883422BD987
:104A60000C46460900F01F00012303FA00F851B17B
:104A70000027124B18680368002B08DB104DBCB1EF
:104A80002846BDE8F081FDF774FC0746F1E76A6847
:104A900052F8263013EA080F08D023EA080342F838
:104AA000263000250021FFF7CBFDE8E7054DF9E7AB
:104AB0003846FDF762FCE3E7034DE1E7C0AB0008D1
:104AC000030188000201880004018A000B4B1B6867
:104AD000DB681A6882420ED9410900F01F000122EA
:104AE00002FA00F05B6853F82130034201D1044818
:104AF0007047044870470448704700BFC0AB0008C7
:104B0000000188000101880004018A00084B1B682D
:104B10005B6CC34013F0010F00D101BE044B1B6856
:104B20001B6910308002185800F00F00704700BF5A
:104B3000D8AD0008134B1B6893F83A3083421DD957
:104B4000042904D9A1F580739BB2132B18D8FF292F
:104B500007D801F00701D0300B4B43F8201000209C
:104B6000704701F01F01084B00F1C00243F822100A
:104B7000D030042243F820200020704703487047BB
:104B800002487047D8AD00080000264001004A00E6
:104B90000C4B1B6893F83A30834200D801BE00F1F9
:104BA000D003094A52F8233003F00703042B01D045
:104BB00018467047C03052F8203003F01F0343F40A
:104BC0008073F5E7D8AD00080000264003460028B2
:104BD0006FD03B4AD2F88025002A6EDB1A68B2F506
:104BE000802F00D301BE1A68C2F31102D9790029BF
:104BF00061D04FF080710A433149C1F880259A880D
:104C0000B2F5005F00D301BE1A89B2F5007F00D370
:104C100001BE9A88C2F30C0218892A4901EA0041B0
:104C20000A432749C1F884259A7A0F2A00D901BE80
:104C3000DA7A0F2A00D901BE9A89B2F5005F00D353
:104C400001BE9A7A02F00F02D97A0901C9B20A4369
:104C500098891D4901EA00210A43997B090701F05F
:104C600040510A431649C1F888259A79042A00D987
:104C700001BE1A8AB2F5007F00D301BE1048D0F8F9
:104C80008C2522F4E0629979090201F4E0610A437B
:104C9000C0F88C25D0F88C2522F0FF7222F48032E7
:104CA000198A084B03EA01431A43C0F88C250020F7
:104CB000704701BE8DE700219DE70448704700BFA3
:104CC000000026400000FF0100FF1F0003004A0013
:104CD000034638B31449D1F88025C2F31100186097
:104CE000C2F30062DA71D1F88425C2F30C00988017
:104CF000C2F308421A81D1F8882502F00F00987299
:104D0000C2F30310D872C2F30C209881C2F301726F
:104D10009A73D1F88C25C2F302219971C2F308422B
:104D20001A82704701BED5E70000264038B5054617
:104D30002D4AD2F88C3543F00043C2F88C35044636
:104D400003E0012000F06AFB013C274BD3F89035CB
:104D500013F0040F01D1002CF3D1234AD2F8883587
:104D600023F0405343F00053C2F8883505B15CB1DD
:104D70001D4AD2F8803543F00043C2F8803503E085
:104D8000012000F04BFB013C174BD3F8903513F09A
:104D9000010F01D1002CF3D105B154B1124AD2F860
:104DA000883543F04053C2F88835C5B1CCB10020F6
:104DB00016E00D4BD3F8882522F0405242F0005205
:104DC000C3F88825D3F8802522F00042C3F8802557
:104DD000D3F88C2522F00042C3F88C25E5E70020AB
:104DE00038BD0248FCE700BF0000264002004A0030
:104DF0002F4B1B6893F83B3083424AD301388342E0
:104E000000D801BE00F5C0732A4A52F82330002BA7
:104E100041DB8A78931EDBB20E2B3ED84B78002BF9
:104E20003DD0122B3DD870B40C78CD786DB31326DD
:104E3000B44238D35DB33826B44236D80E79022E48
:104E400012D004F07F041B0203F4F853234312042E
:104E500002F4F8121A43ED0605F000652A4300F546
:104E6000C073144C44F82320124C00F5C07054F861
:104E7000203023F040530A79120702F040521343C6
:104E800044F82030002070BC70471626D0E770260A
:104E9000D2E70948704709487047074870470648F5
:104EA0007047054870470448EDE70348EBE700BF4B
:104EB000D8AD00080000264001004A0003004A0067
:104EC00001380F4B1B6893F83B30834215D900F52E
:104ED000C0700C4B53F8203003F07F020A70C3F30C
:104EE00004224A70C3F304428A70C3F3C062CA70DA
:104EF000C3F301730B71002070470348704700BF74
:104F0000D8AD00080000264001004A0070B5451EDB
:104F1000144B1B6893F83B30AB421DD90E46124A26
:104F200005F5C07152F8213043F0004342F82130BA
:104F3000344603E0012000F071FA013C05F5C87326
:104F4000094A52F8233013F0010F01D1002CF1D19E
:104F500026B12CB1002002E0044800E0002070BD22
:104F60000348FCE7D8AD00080000264001004A00D5
:104F700002004A00F8B50139072900F21581DFE87F
:104F800011F008001200130117001301130113019F
:104F90008300874B1B78002B40F00881854B012252
:104FA0001A70002502E00025824B1D702846F8BDCE
:104FB0000024814B1C80814B1C800BE0621E9342BD
:104FC00000D801BE02F5C0727D4B53F82230DB0FD2
:104FD0006BB901347B4B1B6893F83B30A34251D330
:104FE000002CEBD1764BD3F88035DB0FF0E7204671
:104FF000FFF7CEFD02280BD0002CEAD1704AD2F880
:10500000883523F0405343F00053C2F88835E0E779
:10501000A4B96B4AD2F8883523F0405343F00053CB
:10502000C2F8883500212046FFF784FD0123A34004
:105030009BB2614A11880B431380CAE7621E04F2D7
:105040007F135F4951F8233013F0405F07D002F51A
:10505000C07351F82330C3F30173012B06D1012330
:10506000A3409BB25549088803430B80544902F57D
:10507000C07251F8223023F0405343F0005341F8FE
:105080002230CFE7002591E74B4B1B8853B94C4B9F
:10509000D3F88035002BC0F283800025454B0022D9
:1050A0001A7083E7484C464BD3F8303503F00303BE
:1050B000032B05D0424BD3F830350CB1013CF2E75D
:1050C000002C57D1414DE9E7013C3D4BD3F89035D9
:1050D00013F0010F01D1002CF6D144B186BB384A40
:1050E000D2F8883543F04053C2F8883500250136A0
:1050F000344B1B6893F83B30B342CFD30127B74002
:10510000BFB22D4B1B881F42F1D002213046FFF762
:1051100011FD002ED9D00AE003F5C873284A52F8D1
:10512000233013F0010FD8D1002CD6D0013C731ED0
:10513000244A126892F83B209342EDD301BEEBE77C
:105140001E4B1B881F420AD01D4A06F27F1152F8DF
:10515000213023F0405342F821300025C7E7184A98
:1051600006F27F1152F8213043F0405342F82130CB
:105170000025BCE70026154DBAE7013B104AD2F8DE
:10518000902512F0010F01D1002BF6D153B10C4A3A
:10519000D2F8883543F04053C2F8883500257DE7C2
:1051A000094BEBE7094D79E7094DFFE6084DFDE6B0
:1051B000C6AB0008D2AB0008C4AB0008D0AB0008F7
:1051C00000002640D8AD000840420F000200420017
:1051D000FF00420070B586B0634B1B6893F83C300B
:1051E000984200D301BE00F1E003604A52F8233038
:1051F000C3F3011301269E405B4B1B6893F83C30C0
:10520000984200D301BEE030584B53F8204004F0E0
:105210000F042046FFF7BCFC022831D00CD940F225
:105220001113984245D040F21313984249D0B0F57B
:10523000887F34D0002506E020B10128FAD14C4BFC
:105240001D6800E04B4D002C45D0474B1B6893F880
:105250003B30A34260D200210A460C460B464BB1BC
:10526000A2FB012359084FEA3200E4FB050109F0D3
:10527000D1F8054605EB5600B0FBF6F006B070BD60
:105280003A4BD3F8303503F00303032B04D0374BEC
:10529000D3F830350025D6E7374B1D68D3E7334BBD
:1052A000D3F80C35002B01DB0025CCE74FF400458B
:1052B000C9E7324B1D6915F00405C4D04FF4004511
:1052C000C1E72A4BD3F83C35002B01DB0025BAE7B8
:1052D0004FF40045B7E7002301930293039304932F
:1052E000059301A8FFF7F4FC204BD3F88035002B81
:1052F00008DB0023019CBDF808209DF80B1049B184
:105300000221ACE79DF81230022B01D00123F1E716
:105310000023EFE70121A2E7002301938DF8083075
:1053200001A92046FFF7CCFD013C0F4B1B6893F809
:105330003B309C4200D301BE04F5C0740B4B53F8C4
:105340002430002B07DB00239DF804409DF8052046
:105350009DF8061083E79DF80830022B01D0012349
:10536000F2E70023F0E700BFD8AD000800002640B8
:10537000CCAB000800127A00C8AB00080000274040
:105380000A4B9A680A4B9A4204D01030094B53F8E2
:105390002000704739B100F11003054A52F823008C
:1053A00042F82310704701BEF5E700BF00ED00E0B2
:1053B000002000080020001030B310B504464368F8
:1053C000072B00D901BEB4F900306268002B0EDB58
:1053D0005201D2B203F1604303F5614383F8002325
:1053E0000A4B9A680A4B9A4208D0002010BD03F07D
:1053F0000F035201D2B20748C254F1E7B4F90000DA
:10540000FFF7BEFF0020F1E70348704700ED00E022
:105410000020000814ED00E00100560008B5034B21
:105420001B7800FB03F0FCF79BFF08BDC0220008BF
:10543000054B4FF000429A649B6C002B01DB00206F
:1054400070470248704700BF000027400300460035
:10545000044BD3F800085B6813F0FF0F01D040F451
:105460008020704700002640FEE7000008B5026873
:10547000254BDA6142681A6282685A62C2689A628F
:105480000269DA6242691A6382695A63C2699A637D
:105490001E4A916AD963D16A1964516A5964516B81
:1054A0009964926BDA64F1EE103A13F0900F27D002
:1054B000026A154B1A65426A5A65826A9A65C26A1F
:1054C000DA65026B1A66426B5A66826B9A66C26B29
:1054D000DA66026C1A67426C5A67826C9A67C26C11
:1054E000DA67026DC3F88020426DC3F88420826DB4
:1054F000C3F88820C26DC3F88C20026EC3F89020D8
:10550000FFF7B2FF08BD00BFD028000800ED00E0A3
:1055100070B4044600282ED019232F48026816685C
:10552000B2F8A450725922F003028B422CBF002320
:1055300001231A43725102681668B2F8A4507259D6
:1055400022F44072725102681668B2F8A65072597D
:1055500022F003021343735103681868B3F8A620BE
:10556000835823F4407383503CB110291FD921295B
:1055700028D801221CE06423CFE7174B1B6893F85F
:1055800051208A4220D293F852208A421ED293F8A8
:1055900053208A421CD293F854208A421AD293F89C
:1055A00055308B4201D2052202E0042200E00022A5
:1055B000094B1B6859680B6823F00F0313430B60FA
:1055C00070BC70470222F3E70022F1E70122EFE707
:1055D0000222EDE70322EBE7D8AD00084FF0B0530D
:1055E0009B899BB2FBB14FF0B0539B899BB2B3F543
:1055F000807F18D010B4174B1B6823F440731649F2
:105600000A681468D2F89400225802F440721343D6
:1056100023500B681A68D3F8983010490968D150A4
:105620005DF8044B70470C4A13681868D3F894105F
:10563000435823F00F0343F00203435013681968E3
:10564000D3F898208B5823F00F0343F002038B50BC
:10565000704700BF48180016D8AD0008441800165F
:105660004FF0B0539B899BB2FBB14FF0B0539B8975
:105670009BB2B3F5807F18D010B4174B1B6823F48E
:10568000407316490A681468D2F89400225802F44C
:105690004072134323500B681A68D3F898301049AE
:1056A0000968D1505DF8044B70470C4A13681868BC
:1056B000D3F89410435823F00F0343F003034350EF
:1056C00013681968D3F898208B5823F00F0343F020
:1056D00003038B50704700BF24180016D8AD000894
:1056E000201800164FF0B0539B899BB2ABB14FF01E
:1056F000B0539B899BB2B3F5807F0ED00D4B1B68D6
:1057000023F440730C4A12681068D2F8941042587F
:1057100002F44072134343507047074B1B681968EB
:10572000D3F894208B5823F4E04343F4C0438B50C8
:10573000704700BF1C180016D8AD00084FF0B053DA
:105740009B899BB2FBB14FF0B0539B899BB2B3F5E1
:10575000807F18D010B4124B1B6823F4407311499A
:105760000A681468D2F89400225802F44072134375
:1057700023500B681A68D3F898300B490968D15048
:105780005DF8044B7047074B1B681968D3F89420E9
:105790008B5823F4E04343F480438B50704700BFA1
:1057A00050180016D8AD00084C18001608B54FF078
:1057B000B0539B899BB243B14FF0B0539B899BB2CE
:1057C000B3F5807F01D0012008BD0E20FFF79EF9C0
:1057D0004FF0B0535B782BB14FF0B0535B78DBB236
:1057E000222B02D818B90120EEE70120ECE70020B7
:1057F000EAE7000008B5124B1B6813F0200F1DD01C
:105800000F4B1B6813F4000F10D10D4A136843F0BF
:10581000B85343F4802313600120FFF7FFFD084ACB
:10582000136843F080431360002008BD044A1368E6
:1058300043F0B05343F480231360EDE70148F4E7ED
:10584000000026400400420008B5164B1B6813F404
:10585000000F11D1134A136823F0A64323F48023C9
:1058600013600820FFF7DAFD64230E4A1268002A4D
:105870000ADB4BB1013BF8E70A4A136823F0A44363
:1058800023F480231360ECE74BB1064A136823F03E
:10589000806313600120FFF7C1FD002008BD0248AE
:1058A000FCE700BF000026400200420008B50228C5
:1058B00000D901BE012804D048B1022804D007480D
:1058C00001E0FFF7C1FF08BDFFF794FFFBE7044AC3
:1058D000136843F4700313600020F4E7FF004200F4
:1058E0000000264000283BD00246C368002B39D078
:1058F0000368002B38D030B405791D4B53F82510C0
:1059000031B30C4600E019464B693BB1914205D0DA
:10591000187E117E8842F6D81C46F4E7914225D0C5
:10592000236943B163695361146103B11A61626110
:10593000012030BC7047117E237E9942F2D254611F
:105940000023136122610A4B43F825200120F0E770
:10595000074B43F825000023436103610120E8E77A
:105960000020704700207047002070470020E0E7CB
:10597000D4AB0008F8B50546012800D901BE4FF0A8
:10598000B0535B78B3B14FF0B0535B78DBB29CB2ED
:105990004FF0B0539B899BB273B14FF0B0539F89C6
:1059A000BFB20E20FFF7B2F8D0B9B7F5807F06D0AE
:1059B000294E16E02123EAE74FF48077F1E7222C05
:1059C0003AD8264B1B6858684FF21801435823F009
:1059D00080732A0602F0807213434350002600E0D1
:1059E0001D4EB7F5807F29D0B7F5807F22D01B4BA5
:1059F0001B6893F82E30012B23D9184B1B681C6AA7
:105A0000B3F8AC301C44B7F5807F1CD005B3144A02
:105A100001212046FEF72AFE60B9104B1B68D3F81F
:105A2000B030E358002BF8DBE36803F07F43B3F1B9
:105A3000204F0FD03046F8BD074ED2E7222CD6D8E3
:105A4000D2E701BED9E70DB1064AE1E7064ADFE732
:105A5000064ADDE70026EDE704004200D8AD000865
:105A60000300000C01010030010000300100000CB7
:105A7000F8B50446012800D901BEFFF797FE0028BB
:105A80004CD0FCF776FC07469CB9254A47F63073A4
:105A90000021D1504FF0B05393F84057EDB20120A0
:105AA000FFF768FF064608B14EBB1BE0FFF796FD07
:105AB000FAE71C4B19681A4A47F63073D1504FF079
:105AC000B05393F84157EDB24FF61C71535823F081
:105AD0001F0343F00B0353500320FFF79FFCFFF716
:105AE0002DFE00260E494FF61C728B5823F01F0323
:105AF00005F01F051D438D5034B9FFF7F3FD3846FF
:105B0000FCF73BFC3046F8BD0720FFF787FCFFF7AA
:105B1000A7FD0020FFF72EFF0646F0E7024EF1E753
:105B200000002640101800160300420004280ED082
:105B300000060A4B1B681A68D3F89C3000F04070CE
:105B4000D050074A136823F0040313607047044AD7
:105B5000136843F004031360704700BFD8AD00081A
:105B600010E000E0002800F0818030B40446002AF4
:105B70007ED053681B029BB29068800400F48020A2
:105B80000343D068000400F440300343106900066A
:105B900000F0E0600343107F002857D0012003434A
:105BA000081D80012350D368002B51D104EB8113D1
:105BB0000020C3F8080113693BB9506904EB811355
:105BC000C3F80C019069C3F81001106804EB81134D
:105BD000C3F81401906CB0F1FF3F17D0936A03F043
:105BE0000F03156B2D0205F470652B43956B2D0487
:105BF00005F470252B43156C2D03ADB22B4300012A
:105C0000C0B2034304EB8110C0F82031536A03F0A3
:105C10000303D06A000100F030000343506B000220
:105C200000F440700343D06B8001C0B20343506C5A
:105C3000800000F00C00034304EB8111C1F8243113
:105C4000136AC1F83831002030BC70470020A6E745
:105C5000012B05D004EB81130120C3F80801AAE74A
:105C6000106804EB8113C3F80801A4E701487047EA
:105C70000048E9E70100B60030B40B1D9B01002489
:105C8000C45000EB8113C3F808414FF0FF35C3F84F
:105C90000C51C3F81051C3F81451C3F8185140F215
:105CA000FF35C3F824513F25C3F828510325C3F815
:105CB0003051C3F83441C3F83841936CB3F1FF3F1E
:105CC00004D000EB81101023C0F8203130BC7047A5
:105CD00010B5FDF773FB00B101BE62B600F096FD92
:105CE00014210024204609F0D7F9204600F0BEFE1A
:105CF000FEE70000064B5A68596B01325A60C20039
:105D00008A18596A51600021117058627047C04664
:105D1000DCAD00080F2310B541680E4ADC00A41862
:105D2000246CA14202D2013BF8D210BD0F2BFCD84B
:105D30001468611A11608168C068002900D0486049
:105D4000002801D00160F0E70833DB00D318596068
:105D5000EBE7C046DCAD0008F8B5284D0600EB685F
:105D6000AA6B013B0818D3180C00984206D80368A8
:105D7000002B03D14368F618FFF7CCFFAB6B9C42B6
:105D80000BD9231F1F68E71B3B68002B05D17B68DD
:105D90003800F6183C00FFF7BDFF0F23DA00AA1801
:105DA000126C964203D2013BF8D23000F8BD0F2BA3
:105DB000FBD80833DA00AA1850680022A119043968
:105DC00022606660A06024610E602100083190426C
:105DD00000D04160E2602A00DB00EB18A06059604F
:105DE0002B682932F3182B601278002ADDD1EA687B
:105DF000D31AAA689342D8D9AB60D6E7DCAD0008C5
:105E0000F0B5234B87B09C6BDB680490013BE31833
:105E1000039323686568002B30D1039B6719BB424D
:105E20002CD93B680293002B28D0194EDB00726BF3
:105E30009B5C012B22D17B6820000193F36A0593C0
:105E4000FFF768FF3B68726BDB00D3185C60019A58
:105E50003900200008F09FFC029B059A934202D172
:105E6000736B5B1B7363019B2800E118FFF774FFE2
:105E7000049B002B01D0984207D2019D039B64191B
:105E8000A342C6D8012007B0F0BD0020FBE7C04602
:105E9000DCAD0008002806D0034AD36B0360002B5A
:105EA00000D05860D0637047DCAD0008034BC000E1
:105EB0005B6B1818406808307047C046DCAD0008BE
:105EC000064A10B5D369C1000133D361536B5B1827
:105ED0001A7801321A70FFF7E9FF10BDDCAD000837
:105EE000036810B5083B094C1B68626BDB00D318D4
:105EF0001A78012A04D9E169002901D00139E16148
:105F0000013A1A7000230360180010BDDCAD0008D0
:105F10000322024B9143186059607047ECAB0008B4
:105F200010B5041E0BD0064BC2005B6B9B185B6860
:105F300019005868FFF710FF2000FFF7DBFE10BDC7
:105F4000DCAD0008F7B5224EF36A002B37D1214BA8
:105F500099685868083107F065FE841CE00000F07D
:105F6000FFF80125071E28D0726BC300D3185D68A7
:105F7000F36A083501933369716BDA00164B280018
:105F80001B689847316975630B00CA000432F762D9
:105F9000AA18601E834217D3DB00EB1800255D6052
:105FA0000B4B5A685962511A091959601C61019BBF
:105FB000AB4202D01800FFF7B3FF2800FEBD3369E3
:105FC000DC080433E418C9E7013313600832E1E761
:105FD000DCAD0008ECAB0008FC22000870B5184CE2
:105FE000230028331A78002A29D101321A70154B60
:105FF0000F32DA609A68002A02D15A6892089A60D1
:106000005A22102622620022196835009540D000DD
:10601000201801320564102AF7D1586801250300C1
:10602000143BCB180E3A22616363A163E0605D60AC
:1060300065626560FFF790FEFFF784FF256370BD22
:10604000DCAD0008ECAB0008F7B50400FFF7C6FFB5
:106050000323274E03349C43336C04349C4200D208
:106060001C00F26B100000282BD1F268B36B944631
:1060700063441F1F3A6801939D1A2B68002B04D0BC
:10608000FFF7BEFE3D68019B5D1B00272B68BB42EE
:106090002BD16868844228DC001B071D2800FFF70D
:1060A00039FEF368EF191B1BF36073691B197361E9
:1060B0006B68181B02D02900FFF74EFE3B1F1C60C7
:1060C00013E0031F196803688C4201D01800CAE767
:1060D000002B01D0416859604168002900D00B6055
:1060E0000700824201D10368F3633800FEBDC04659
:1060F000DCAD000810B5FFF771FF00230C4A190052
:10610000BC31505800280CD083680020002B0CD0E4
:106110005A68824200D910009B68002B05D09B680A
:10612000F4E7083B19008031E9D10C3810BDC046B6
:10613000DCAD000810B5FFF7DDFF8023074CDB0363
:10614000984205D9642107F07FFD236A584310BDAA
:10615000236A6421584307F065FDF8E7DCAD0008C9
:10616000F0B585B00400FFF739FF3C4D2E6CB4420A
:1061700003D3032303349C4326002B680C3601967B
:10618000B34203D20027380005B0F0BD2B6B6A681C
:106190009A4225D96B686F6A013B6B60FB000393E1
:1061A0006B6BFA009B185A686A6201221A70002F02
:1061B000E8D00F23DA00AA18126C964201D2013BF4
:1061C000F8D21A00DB004433EB180F2A12D9300042
:1061D000FFF716FE0028ECD03800FFF78BFDD1E763
:1061E000013B2B63FFF7AEFE2B6B01332B630028C3
:1061F000D0D0C7E71968002907D08C68002C04D0DC
:1062000061688E4204D9A168F5E701320833DCE702
:10621000636802939E1B2B6C0C339E4201D2029B3F
:1062200001932000FFF776FD6B6B039A9B185C606F
:10623000019B019A63600023A360019B2760E11822
:106240000B1F24611A601300029A93429BDA130019
:10625000019A981AFFF780FD95E7C046DCAD00086B
:1062600010B5002801D0FFF77BFF10BD37B5050042
:10627000FFF7F6FF041E0AD0FFF722FE054B019040
:106280001B682A000021984701A8FFF729FE20007B
:106290003EBDC04604230008514BF0B51B688FB0CB
:1062A000DA69D569AC89844200D983E0E989814201
:1062B00000D27FE02968041B09910121494208911D
:1062C000611C6FD022215E5E2420195E0691127E31
:1062D0000A92AA7C0A9951430C912A7C0B922A2299
:1062E0009B5E1800079301F039FE3D4F0D903A6810
:1062F0000699D369926B300005920C9A5443099A1F
:10630000141904940124AA7C02940392DA7E019267
:106310009B7E0B9A00930A9B01F088FF089B013338
:106320001BD00220079B184301F018FE3B68089918
:10633000DA699B6B300005930C9B4B430999CB1892
:106340000493AB7C02940393D37E06990193937ECE
:106350000B9A00930A9B01F069FF214C2368DB69CB
:106360005A7E1B7E9A4217D9079B022B14D0042019
:10637000584001F0F3FD2368069AD8690B99437ED3
:10638000047E9B18827E51438A19C17E0698614320
:106390000918300001F03EFE6B4634229B18187835
:1063A00001F0DCFD0E4B1A686B7C518C5B1853843A
:1063B0000FB0F0BDA9680029F4D00C88A042F1D339
:1063C0004E888642EED3001B49686E6880B280001A
:1063D000081809960021445E0221415E6FE7C0461D
:1063E000C4220008044B1B68DB69DB69002901D06B
:1063F0001A7C0A60587C7047C422000802230B8074
:10640000704710B5C3699A898A4203D8DA89012096
:106410008A4210D29B68181E0DD01A880020914223
:1064200009D35C888C4206D3891A5B688900C85AF4
:10643000C04380B2C00B10BD30B50300FF24234021
:106440000C401C1BA4B225B2002D01DA644225B217
:10645000FF23040A0A0A1C401A40A21A92B213B27D
:106460006D43002B01DA524213B25B43000C090C5E
:10647000411A89B25A190BB2002B01DA49420BB208
:1064800099B24943881830BD044B00229B5E0360DB
:10649000034B00229B5E0B607047C046C4AE0008F1
:1064A000B4AE000870B5002827D0002926D0002AF5
:1064B00025D013880D881C1C2EB21BB2B34200DD00
:1064C0002C1C048053884D881C1C2EB21BB2B34276
:1064D00000DD2C1C448093888D881C1C2EB21BB2BE
:1064E000B34200DA2C1C8480D388C9881A1C0CB2F1
:1064F0001BB2A34200DA0A1CC28070BD1100082240
:1065000008F03EF9F9E700280DD0038889B2CB18CE
:106510000380838892B2C91843888180D31843804E
:10652000C388D218C28070470E4B10B51B681C1E62
:1065300003D098470400601E844103F0C5FA002888
:1065400000D00124084B1B68002B03D0984700287B
:1065500000D00124054B1B68002B00D09847200079
:1065600010BDC046C0AE0008E8AE0008E0AE0008AE
:1065700070B500240125FFF7D7FF002801D12000C6
:1065800070BD2C00F7E70000024B1B68588499840B
:1065900000207047C4220008024B1B681A7E187640
:1065A00010007047C422000830B503000222845E48
:1065B00006200A5E0020944213DC02228C5E06252F
:1065C0005A5F94420DDC00229C5E04254A5F94428F
:1065D00007DC00228A5E04215B5ED00FD91793424C
:1065E000484130BD10B5034B6C22196808F0C8F85B
:1065F00010BDC046C422000810B5034B01006C2238
:10660000186808F0BDF810BDC422000810B502F0EB
:1066100075F902F0D9F903F097FA10BD10B501F041
:10662000B7FF10BD10B501F0BBFF10BD10B501F0F4
:1066300095FC10BD034B021E1B68D86900D0DA61BF
:106640007047C046C4220008024B1B689A7E9876A9
:1066500010007047C4220008084B10B51880084B82
:106660000A001980074B08491B685B7C9B005B583C
:10667000D9680C6A01001800A04710BDC4AE00081C
:10668000B4AE0008C4220008ECAE0008034B1B683F
:106690002C215A5E988510007047C046C42200081D
:1066A000034B1B682A215A5E588510007047C0466C
:1066B000C42200080E4B10B5186801F069FF0D4B9D
:1066C000186801F06DFF0120FFF766FF0020FFF75B
:1066D000DDFF0020FFF7E4FF0020FFF7A7FF064BD8
:1066E0001868FFF7A7FF0020FFF7AEFF10BDC046F8
:1066F000CC220008D0220008D422000870B5002463
:106700000A4D0B4E10C53368210028006C229847B3
:1067100033680422210007489847074B1D60074B48
:106720001C70074B1C60074B1C6070BDFCAB000865
:1067300004230008ECAE0008C4220008D4AE000810
:10674000B0AE0008E0AE0008014B18617047C046CB
:10675000C4220008F0B51600050085B00C00042026
:10676000019301F0FBFB114B00901A68936CD76CFE
:106770005D199E19019B3C19FF1802AB18001D8082
:106780009E805C80DF8003F037F8002804D10098F9
:1067900001F0E4FB05B0F0BD3B0032002100280011
:1067A00001F038FC02F07AFFEFE7C046C42200088F
:1067B000002110B50800FFF7E7FE034A0348130065
:1067C0000100FFF7C7FF10BDFF3F000001C0FFFF42
:1067D000024B5A6F586742607047C046FCAB0008D6
:1067E00010B5084C2368002B0BD101332360FBF755
:1067F000C7FDFBF71DFF2000034B7830A367FFF7B1
:10680000E7FF10BDFCAB0008FD66001070B5FFF798
